{"abi":[{"type":"function","name":"NIL16","inputs":[],"outputs":[{"name":"","type":"uint256","internalType":"euint16"}],"stateMutability":"view"},{"type":"function","name":"NIL32","inputs":[],"outputs":[{"name":"","type":"uint256","internalType":"euint32"}],"stateMutability":"view"},{"type":"function","name":"NIL8","inputs":[],"outputs":[{"name":"","type":"uint256","internalType":"euint8"}],"stateMutability":"view"}],"bytecode":{"object":"0x606f6032600b8282823980515f1a607314602657634e487b7160e01b5f525f60045260245ffd5b305f52607381538281f3fe73000000000000000000000000000000000000000030146080604052600436106046575f3560e01c80639e80b51314604a578063acfc53ee14604a578063b1c4854414604a575b5f80fd5b60505f81565b60405190815260200160405180910390f3fea164736f6c6343000819000a","linkReferences":{}},"methodIdentifiers":{"NIL16()":"acfc53ee","NIL32()":"9e80b513","NIL8()":"b1c48544"},"id":0}