{"abi":[{"type":"function","name":"add","inputs":[{"name":"utype","type":"uint8","internalType":"uint8"},{"name":"lhsHash","type":"bytes","internalType":"bytes"},{"name":"rhsHash","type":"bytes","internalType":"bytes"}],"outputs":[{"name":"","type":"bytes","internalType":"bytes"}],"stateMutability":"pure"},{"type":"function","name":"and","inputs":[{"name":"utype","type":"uint8","internalType":"uint8"},{"name":"lhsHash","type":"bytes","internalType":"bytes"},{"name":"rhsHash","type":"bytes","internalType":"bytes"}],"outputs":[{"name":"","type":"bytes","internalType":"bytes"}],"stateMutability":"pure"},{"type":"function","name":"boolToBytes","inputs":[{"name":"value","type":"bool","internalType":"bool"}],"outputs":[{"name":"","type":"bytes","internalType":"bytes"}],"stateMutability":"pure"},{"type":"function","name":"cast","inputs":[{"name":"","type":"uint8","internalType":"uint8"},{"name":"input","type":"bytes","internalType":"bytes"},{"name":"toType","type":"uint8","internalType":"uint8"}],"outputs":[{"name":"","type":"bytes","internalType":"bytes"}],"stateMutability":"pure"},{"type":"function","name":"decrypt","inputs":[{"name":"","type":"uint8","internalType":"uint8"},{"name":"input","type":"bytes","internalType":"bytes"}],"outputs":[{"name":"","type":"uint256","internalType":"uint256"}],"stateMutability":"pure"},{"type":"function","name":"div","inputs":[{"name":"utype","type":"uint8","internalType":"uint8"},{"name":"lhsHash","type":"bytes","internalType":"bytes"},{"name":"rhsHash","type":"bytes","internalType":"bytes"}],"outputs":[{"name":"","type":"bytes","internalType":"bytes"}],"stateMutability":"pure"},{"type":"function","name":"eq","inputs":[{"name":"utype","type":"uint8","internalType":"uint8"},{"name":"lhsHash","type":"bytes","internalType":"bytes"},{"name":"rhsHash","type":"bytes","internalType":"bytes"}],"outputs":[{"name":"","type":"bytes","internalType":"bytes"}],"stateMutability":"pure"},{"type":"function","name":"getNetworkPublicKey","inputs":[{"name":"","type":"int32","internalType":"int32"}],"outputs":[{"name":"","type":"bytes","internalType":"bytes"}],"stateMutability":"pure"},{"type":"function","name":"gt","inputs":[{"name":"utype","type":"uint8","internalType":"uint8"},{"name":"lhsHash","type":"bytes","internalType":"bytes"},{"name":"rhsHash","type":"bytes","internalType":"bytes"}],"outputs":[{"name":"","type":"bytes","internalType":"bytes"}],"stateMutability":"pure"},{"type":"function","name":"gte","inputs":[{"name":"utype","type":"uint8","internalType":"uint8"},{"name":"lhsHash","type":"bytes","internalType":"bytes"},{"name":"rhsHash","type":"bytes","internalType":"bytes"}],"outputs":[{"name":"","type":"bytes","internalType":"bytes"}],"stateMutability":"pure"},{"type":"function","name":"log","inputs":[{"name":"s","type":"string","internalType":"string"}],"outputs":[],"stateMutability":"pure"},{"type":"function","name":"lt","inputs":[{"name":"utype","type":"uint8","internalType":"uint8"},{"name":"lhsHash","type":"bytes","internalType":"bytes"},{"name":"rhsHash","type":"bytes","internalType":"bytes"}],"outputs":[{"name":"","type":"bytes","internalType":"bytes"}],"stateMutability":"pure"},{"type":"function","name":"lte","inputs":[{"name":"utype","type":"uint8","internalType":"uint8"},{"name":"lhsHash","type":"bytes","internalType":"bytes"},{"name":"rhsHash","type":"bytes","internalType":"bytes"}],"outputs":[{"name":"","type":"bytes","internalType":"bytes"}],"stateMutability":"pure"},{"type":"function","name":"max","inputs":[{"name":"utype","type":"uint8","internalType":"uint8"},{"name":"lhsHash","type":"bytes","internalType":"bytes"},{"name":"rhsHash","type":"bytes","internalType":"bytes"}],"outputs":[{"name":"","type":"bytes","internalType":"bytes"}],"stateMutability":"pure"},{"type":"function","name":"maxValue","inputs":[{"name":"utype","type":"uint8","internalType":"uint8"}],"outputs":[{"name":"","type":"uint256","internalType":"uint256"}],"stateMutability":"pure"},{"type":"function","name":"min","inputs":[{"name":"utype","type":"uint8","internalType":"uint8"},{"name":"lhsHash","type":"bytes","internalType":"bytes"},{"name":"rhsHash","type":"bytes","internalType":"bytes"}],"outputs":[{"name":"","type":"bytes","internalType":"bytes"}],"stateMutability":"pure"},{"type":"function","name":"mul","inputs":[{"name":"utype","type":"uint8","internalType":"uint8"},{"name":"lhsHash","type":"bytes","internalType":"bytes"},{"name":"rhsHash","type":"bytes","internalType":"bytes"}],"outputs":[{"name":"","type":"bytes","internalType":"bytes"}],"stateMutability":"pure"},{"type":"function","name":"ne","inputs":[{"name":"utype","type":"uint8","internalType":"uint8"},{"name":"lhsHash","type":"bytes","internalType":"bytes"},{"name":"rhsHash","type":"bytes","internalType":"bytes"}],"outputs":[{"name":"","type":"bytes","internalType":"bytes"}],"stateMutability":"pure"},{"type":"function","name":"not","inputs":[{"name":"utype","type":"uint8","internalType":"uint8"},{"name":"value","type":"bytes","internalType":"bytes"}],"outputs":[{"name":"","type":"bytes","internalType":"bytes"}],"stateMutability":"pure"},{"type":"function","name":"or","inputs":[{"name":"utype","type":"uint8","internalType":"uint8"},{"name":"lhsHash","type":"bytes","internalType":"bytes"},{"name":"rhsHash","type":"bytes","internalType":"bytes"}],"outputs":[{"name":"","type":"bytes","internalType":"bytes"}],"stateMutability":"pure"},{"type":"function","name":"random","inputs":[{"name":"utype","type":"uint8","internalType":"uint8"},{"name":"seed","type":"uint64","internalType":"uint64"},{"name":"securityZone","type":"int32","internalType":"int32"}],"outputs":[{"name":"","type":"bytes","internalType":"bytes"}],"stateMutability":"pure"},{"type":"function","name":"rem","inputs":[{"name":"utype","type":"uint8","internalType":"uint8"},{"name":"lhsHash","type":"bytes","internalType":"bytes"},{"name":"rhsHash","type":"bytes","internalType":"bytes"}],"outputs":[{"name":"","type":"bytes","internalType":"bytes"}],"stateMutability":"pure"},{"type":"function","name":"req","inputs":[{"name":"","type":"uint8","internalType":"uint8"},{"name":"input","type":"bytes","internalType":"bytes"}],"outputs":[{"name":"","type":"bytes","internalType":"bytes"}],"stateMutability":"pure"},{"type":"function","name":"sealOutput","inputs":[{"name":"","type":"uint8","internalType":"uint8"},{"name":"ctHash","type":"bytes","internalType":"bytes"},{"name":"","type":"bytes","internalType":"bytes"}],"outputs":[{"name":"","type":"string","internalType":"string"}],"stateMutability":"pure"},{"type":"function","name":"select","inputs":[{"name":"","type":"uint8","internalType":"uint8"},{"name":"controlHash","type":"bytes","internalType":"bytes"},{"name":"ifTrueHash","type":"bytes","internalType":"bytes"},{"name":"ifFalseHash","type":"bytes","internalType":"bytes"}],"outputs":[{"name":"","type":"bytes","internalType":"bytes"}],"stateMutability":"pure"},{"type":"function","name":"shl","inputs":[{"name":"","type":"uint8","internalType":"uint8"},{"name":"lhsHash","type":"bytes","internalType":"bytes"},{"name":"rhsHash","type":"bytes","internalType":"bytes"}],"outputs":[{"name":"","type":"bytes","internalType":"bytes"}],"stateMutability":"pure"},{"type":"function","name":"shr","inputs":[{"name":"","type":"uint8","internalType":"uint8"},{"name":"lhsHash","type":"bytes","internalType":"bytes"},{"name":"rhsHash","type":"bytes","internalType":"bytes"}],"outputs":[{"name":"","type":"bytes","internalType":"bytes"}],"stateMutability":"pure"},{"type":"function","name":"sub","inputs":[{"name":"utype","type":"uint8","internalType":"uint8"},{"name":"lhsHash","type":"bytes","internalType":"bytes"},{"name":"rhsHash","type":"bytes","internalType":"bytes"}],"outputs":[{"name":"","type":"bytes","internalType":"bytes"}],"stateMutability":"pure"},{"type":"function","name":"trivialEncrypt","inputs":[{"name":"input","type":"bytes","internalType":"bytes"},{"name":"toType","type":"uint8","internalType":"uint8"},{"name":"","type":"int32","internalType":"int32"}],"outputs":[{"name":"","type":"bytes","internalType":"bytes"}],"stateMutability":"pure"},{"type":"function","name":"uint256ToBytes","inputs":[{"name":"value","type":"uint256","internalType":"uint256"}],"outputs":[{"name":"","type":"bytes","internalType":"bytes"}],"stateMutability":"pure"},{"type":"function","name":"verify","inputs":[{"name":"","type":"uint8","internalType":"uint8"},{"name":"input","type":"bytes","internalType":"bytes"},{"name":"","type":"int32","internalType":"int32"}],"outputs":[{"name":"","type":"bytes","internalType":"bytes"}],"stateMutability":"pure"},{"type":"function","name":"xor","inputs":[{"name":"utype","type":"uint8","internalType":"uint8"},{"name":"lhsHash","type":"bytes","internalType":"bytes"},{"name":"rhsHash","type":"bytes","internalType":"bytes"}],"outputs":[{"name":"","type":"bytes","internalType":"bytes"}],"stateMutability":"pure"}],"bytecode":{"object":"0x6080604052348015600e575f80fd5b5061158c8061001c5f395ff3fe608060405234801561000f575f80fd5b50600436106101e6575f3560e01c8063874b1c1011610109578063b9c7a54b1161009e578063cc2cbeff1161006e578063cc2cbeff1461041e578063d260d9ab14610431578063eb274b7714610444578063eb37680414610457575f80fd5b8063b9c7a54b146103d2578063ba19ac28146103e5578063c2d96952146103f8578063c7559da41461040b575f80fd5b8063aa626e8a116100d9578063aa626e8a14610386578063ae104cfd14610399578063ae42450a146103ac578063b8fa1043146103bf575f80fd5b8063874b1c101461033f57806392348b34146103525780639944d12d14610365578063a1848ff314610378575f80fd5b80634a5a11171161017f578063650de1cf1161014f578063650de1cf146102f357806372d456f51461030657806373cc0154146103195780637d23f1db1461032c575f80fd5b80634a5a1117146102995780635211c679146102ac57806355e5e6c5146102bf5780635e639f19146102e0575f80fd5b80631f4cda2f116101ba5780631f4cda2f1461024c57806321b50ba31461025f57806341304fac146102735780634284f76514610286575f80fd5b80622df619146101ea5780630b80518e1461021357806313c0c9ae146102265780631b1b484e14610239575b5f80fd5b6101fd6101f8366004611012565b61046a565b60405161020a91906110ec565b60405180910390f35b6101fd610221366004611012565b6104b2565b6101fd610234366004611012565b61050c565b6101fd61024736600461110f565b610554565b6101fd61025a366004611012565b610577565b6101fd61026d366004611128565b50919050565b610284610281366004611182565b50565b005b6101fd610294366004611012565b61059f565b6101fd6102a73660046111c7565b6105c7565b6101fd6102ba366004611012565b6105df565b6102d26102cd366004611218565b610639565b60405190815260200161020a565b6101fd6102ee366004611012565b610808565b6101fd610301366004611012565b61082a565b6101fd610314366004611012565b610872565b6102d2610327366004611231565b610894565b6101fd61033a366004611231565b919050565b6101fd61034d366004611012565b6108a7565b6101fd610360366004611012565b6108ee565b6101fd610373366004611012565b610935565b6101fd61026d366004611012565b6101fd61039436600461127c565b610966565b6101fd6103a7366004611012565b610974565b6101fd6103ba366004611012565b610996565b6101fd6103cd3660046112c1565b6109bc565b6101fd6103e0366004611012565b610a7a565b6101fd6103f33660046112e0565b610ac1565b6101fd610406366004611323565b610ad9565b6101fd6104193660046113b6565b610b00565b6101fd61042c366004611012565b610b30565b6101fd61043f366004611231565b610b58565b6101fd610452366004611012565b610b71565b6101fd610465366004611012565b610bb9565b60605f61047685610639565b61047f84610be1565b61048886610be1565b61049291906113fa565b61049c919061143a565b90506104a781610b00565b9150505b9392505050565b60605f6104be85610639565b6104c784610be1565b6104d1919061143a565b6104da86610639565b6104e386610be1565b6104ed919061143a565b10159050600181900361050357839150506104ab565b50909392505050565b60605f61051885610639565b61052184610be1565b61052b919061143a565b61053486610639565b61053d86610be1565b610547919061143a565b141590506104a7816109bc565b60605f60405180608001604052806041815260200161153f604191399392505050565b60605f61058385610639565b61058c84610be1565b61059586610be1565b610492919061144d565b60605f6105ab85610639565b6105b484610be1565b6105bd86610be1565b6104929190611460565b60605f6105d384611477565b90506104a78184610cd2565b60605f6105eb85610639565b6105f484610be1565b6105fe919061143a565b61060786610639565b61061086610be1565b61061a919061143a565b10159050600181900361063057829150506104ab565b50919392505050565b5f8060ff831681036106585761065160ff60016113fa565b9050610802565b8260ff166001036106705761065161ffff60016113fa565b8260ff1660020361068a5761065163ffffffff60016113fa565b8260ff166003036106a85761065167ffffffffffffffff60016113fa565b8260ff166004036106ce576106516fffffffffffffffffffffffffffffffff60016113fa565b8260ff166005036106e157506001610802565b60058360ff161180156106f75750600c8360ff16105b15610763576040517f08c379a000000000000000000000000000000000000000000000000000000000815260206004820152601060248201527f556e737570706f7274656420747970650000000000000000000000000000000060448201526064015b60405180910390fd5b8260ff16600c0361078d5761065173ffffffffffffffffffffffffffffffffffffffff60016113fa565b8260ff16600d036107a057506001610802565b6040517f08c379a000000000000000000000000000000000000000000000000000000000815260206004820152601060248201527f556e737570706f72746564207479706500000000000000000000000000000000604482015260640161075a565b92915050565b60605f61081483611477565b61081d85611477565b1890506104a78186610cd2565b60605f61083685610639565b61083f84610be1565b610849919061143a565b61085286610639565b61085b86610be1565b610865919061143a565b101590506104a7816109bc565b60605f61087e83611477565b61088785611477565b1790506104a78186610cd2565b5f8061089f83610be1565b949350505050565b60605f6108b385610639565b6108bc84610be1565b6108c6919061143a565b6108cf86610639565b6108d886610be1565b6108e2919061143a565b1190506104a7816109bc565b60605f6108fa85610639565b61090384610be1565b61090d919061143a565b61091686610639565b61091f86610be1565b610929919061143a565b1490506104a7816109bc565b60605f61094184610be1565b90505f61094d84610be1565b905081811c61095b81610b00565b979650505050505050565b606061089f61041985610639565b60605f61098083611477565b61098985611477565b1690506104a78186610cd2565b60605f6109a284610be1565b90505f6109ae84610be1565b905081811b61095b81610b00565b6040805160018082528183019092526060915f91906020820181803683370190505090508215610a3057600160f81b815f815181106109fd576109fd6114b9565b60200101907effffffffffffffffffffffffffffffffffffffffffffffffffffffffffffff191690815f1a905350610802565b5f60f81b815f81518110610a4657610a466114b9565b60200101907effffffffffffffffffffffffffffffffffffffffffffffffffffffffffffff191690815f1a90535092915050565b60605f610a8685610639565b610a8f84610be1565b610a99919061143a565b610aa286610639565b610aab86610be1565b610ab5919061143a565b1090506104a7816109bc565b60605f610acd85611477565b90506104a78185610cd2565b60605f610ae585610e95565b90508015610af6578391505061089f565b5090949350505050565b6040805160208082528183019092526060915f919060208201818036833750505060208101939093525090919050565b60605f610b3c85610639565b610b4584610be1565b610b4e86610be1565b61049291906114e6565b60605f610b6483611477565b19905061089f8185610cd2565b60605f610b7d85610639565b610b8684610be1565b610b90919061143a565b610b9986610639565b610ba286610be1565b610bac919061143a565b111590506104a7816109bc565b60605f610bc585610639565b610bce84610be1565b610bd786610be1565b610492919061143a565b5f602082511115610c4e576040517f08c379a000000000000000000000000000000000000000000000000000000000815260206004820152601860248201527f4279746573206c656e67746820657863656564732033322e0000000000000000604482015260640161075a565b8151610c5b9060206114e6565b67ffffffffffffffff811115610c7357610c73610f36565b6040519080825280601f01601f191660200182016040528015610c9d576020820181803683370190505b5082604051602001610cb09291906114f9565b6040516020818303038152906040528060200190518101906108029190611527565b60605f8260ff165f03610ce757506001610de6565b8260ff16600103610cfa57506002610de6565b8260ff16600203610d0d57506004610de6565b8260ff16600303610d2057506008610de6565b8260ff16600403610d3357506010610de6565b8260ff16600503610d4657506020610de6565b60058360ff16118015610d5d5750600b8360ff1611155b15610dc4576040517f08c379a000000000000000000000000000000000000000000000000000000000815260206004820152601060248201527f556e737570706f72746564207479706500000000000000000000000000000000604482015260640161075a565b8260ff16600c03610dd757506014610de6565b8260ff16600d036107a0575060015b6040805160208082528183019092525f916020820181803683370190505090505f5b82811015610e8c5785610e1b82856113fa565b60208110610e2b57610e2b6114b9565b1a60f81b8282610e3c8660206114e6565b610e4691906113fa565b81518110610e5657610e566114b9565b60200101907effffffffffffffffffffffffffffffffffffffffffffffffffffffffffffff191690815f1a905350600101610e08565b50949350505050565b5f602082511115610f02576040517f08c379a000000000000000000000000000000000000000000000000000000000815260206004820152601860248201527f4279746573206c656e67746820657863656564732033322e0000000000000000604482015260640161075a565b5f825f81518110610f1557610f156114b9565b016020015160f81c15159392505050565b803560ff8116811461033a575f80fd5b7f4e487b71000000000000000000000000000000000000000000000000000000005f52604160045260245ffd5b5f67ffffffffffffffff80841115610f7d57610f7d610f36565b604051601f85017fffffffffffffffffffffffffffffffffffffffffffffffffffffffffffffffe0908116603f01168101908282118183101715610fc357610fc3610f36565b81604052809350858152868686011115610fdb575f80fd5b858560208301375f602087830101525050509392505050565b5f82601f830112611003575f80fd5b6104ab83833560208501610f63565b5f805f60608486031215611024575f80fd5b61102d84610f26565b9250602084013567ffffffffffffffff80821115611049575f80fd5b61105587838801610ff4565b9350604086013591508082111561106a575f80fd5b5061107786828701610ff4565b9150509250925092565b5f5b8381101561109b578181015183820152602001611083565b50505f910152565b5f81518084526110ba816020860160208601611081565b601f017fffffffffffffffffffffffffffffffffffffffffffffffffffffffffffffffe0169290920160200192915050565b602081525f6104ab60208301846110a3565b8035600381900b811461033a575f80fd5b5f6020828403121561111f575f80fd5b6104ab826110fe565b5f805f6060848603121561113a575f80fd5b61114384610f26565b9250602084013567ffffffffffffffff81111561115e575f80fd5b61116a86828701610ff4565b925050611179604085016110fe565b90509250925092565b5f60208284031215611192575f80fd5b813567ffffffffffffffff8111156111a8575f80fd5b8201601f810184136111b8575f80fd5b61089f84823560208401610f63565b5f805f606084860312156111d9575f80fd5b6111e284610f26565b9250602084013567ffffffffffffffff8111156111fd575f80fd5b61120986828701610ff4565b92505061117960408501610f26565b5f60208284031215611228575f80fd5b6104ab82610f26565b5f8060408385031215611242575f80fd5b61124b83610f26565b9150602083013567ffffffffffffffff811115611266575f80fd5b61127285828601610ff4565b9150509250929050565b5f805f6060848603121561128e575f80fd5b61129784610f26565b9250602084013567ffffffffffffffff811681146112b3575f80fd5b9150611179604085016110fe565b5f602082840312156112d1575f80fd5b813580151581146104ab575f80fd5b5f805f606084860312156112f2575f80fd5b833567ffffffffffffffff811115611308575f80fd5b61131486828701610ff4565b9350506112b360208501610f26565b5f805f8060808587031215611336575f80fd5b61133f85610f26565b9350602085013567ffffffffffffffff8082111561135b575f80fd5b61136788838901610ff4565b9450604087013591508082111561137c575f80fd5b61138888838901610ff4565b9350606087013591508082111561139d575f80fd5b506113aa87828801610ff4565b91505092959194509250565b5f602082840312156113c6575f80fd5b5035919050565b7f4e487b71000000000000000000000000000000000000000000000000000000005f52601160045260245ffd5b80820180821115610802576108026113cd565b7f4e487b71000000000000000000000000000000000000000000000000000000005f52601260045260245ffd5b5f826114485761144861140d565b500690565b5f8261145b5761145b61140d565b500490565b8082028115828204841417610802576108026113cd565b8051602080830151919081101561026d577fffffffffffffffffffffffffffffffffffffffffffffffffffffffffffffffff60209190910360031b1b16919050565b7f4e487b71000000000000000000000000000000000000000000000000000000005f52603260045260245ffd5b81810381811115610802576108026113cd565b5f835161150a818460208801611081565b83519083019061151e818360208801611081565b01949350505050565b5f60208284031215611537575f80fd5b505191905056fe28282d282d5f282d5f2d295f2d292d292920596f75277665207374657070656420696e746f207468652077726f6e67206e65696768626f72686f6f642070616c2ea164736f6c6343000819000a","linkReferences":{}},"methodIdentifiers":{"add(uint8,bytes,bytes)":"002df619","and(uint8,bytes,bytes)":"ae104cfd","boolToBytes(bool)":"b8fa1043","cast(uint8,bytes,uint8)":"4a5a1117","decrypt(uint8,bytes)":"73cc0154","div(uint8,bytes,bytes)":"1f4cda2f","eq(uint8,bytes,bytes)":"92348b34","getNetworkPublicKey(int32)":"1b1b484e","gt(uint8,bytes,bytes)":"874b1c10","gte(uint8,bytes,bytes)":"650de1cf","log(string)":"41304fac","lt(uint8,bytes,bytes)":"b9c7a54b","lte(uint8,bytes,bytes)":"eb274b77","max(uint8,bytes,bytes)":"0b80518e","maxValue(uint8)":"55e5e6c5","min(uint8,bytes,bytes)":"5211c679","mul(uint8,bytes,bytes)":"4284f765","ne(uint8,bytes,bytes)":"13c0c9ae","not(uint8,bytes)":"d260d9ab","or(uint8,bytes,bytes)":"72d456f5","random(uint8,uint64,int32)":"aa626e8a","rem(uint8,bytes,bytes)":"eb376804","req(uint8,bytes)":"7d23f1db","sealOutput(uint8,bytes,bytes)":"a1848ff3","select(uint8,bytes,bytes,bytes)":"c2d96952","shl(uint8,bytes,bytes)":"ae42450a","shr(uint8,bytes,bytes)":"9944d12d","sub(uint8,bytes,bytes)":"cc2cbeff","trivialEncrypt(bytes,uint8,int32)":"ba19ac28","uint256ToBytes(uint256)":"c7559da4","verify(uint8,bytes,int32)":"21b50ba3","xor(uint8,bytes,bytes)":"5e639f19"},"id":3}