{"abi":[{"type":"function","name":"Fheos","inputs":[],"outputs":[{"name":"","type":"address","internalType":"address"}],"stateMutability":"view"}],"bytecode":{"object":"0x60736032600b8282823980515f1a607314602657634e487b7160e01b5f525f60045260245ffd5b305f52607381538281f3fe73000000000000000000000000000000000000000030146080604052600436106032575f3560e01c806313d8d464146036575b5f80fd5b603d608081565b60405173ffffffffffffffffffffffffffffffffffffffff909116815260200160405180910390f3fea164736f6c6343000819000a","linkReferences":{}},"methodIdentifiers":{"Fheos()":"13d8d464"},"id":3}