{"abi":[{"type":"constructor","inputs":[{"name":"name","type":"string","internalType":"string"},{"name":"symbol","type":"string","internalType":"string"}],"stateMutability":"nonpayable"},{"type":"function","name":"_allowanceEncrypted","inputs":[{"name":"owner","type":"address","internalType":"address"},{"name":"spender","type":"address","internalType":"address"}],"outputs":[{"name":"","type":"uint256","internalType":"euint128"}],"stateMutability":"view"},{"type":"function","name":"allowance","inputs":[{"name":"owner","type":"address","internalType":"address"},{"name":"spender","type":"address","internalType":"address"}],"outputs":[{"name":"","type":"uint256","internalType":"uint256"}],"stateMutability":"view"},{"type":"function","name":"allowanceEncrypted","inputs":[{"name":"spender","type":"address","internalType":"address"},{"name":"permission","type":"tuple","internalType":"struct Permission","components":[{"name":"publicKey","type":"bytes32","internalType":"bytes32"},{"name":"signature","type":"bytes","internalType":"bytes"}]}],"outputs":[{"name":"","type":"string","internalType":"string"}],"stateMutability":"view"},{"type":"function","name":"approve","inputs":[{"name":"spender","type":"address","internalType":"address"},{"name":"value","type":"uint256","internalType":"uint256"}],"outputs":[{"name":"","type":"bool","internalType":"bool"}],"stateMutability":"nonpayable"},{"type":"function","name":"approveEncrypted","inputs":[{"name":"spender","type":"address","internalType":"address"},{"name":"value","type":"tuple","internalType":"struct inEuint128","components":[{"name":"data","type":"bytes","internalType":"bytes"},{"name":"securityZone","type":"int32","internalType":"int32"}]}],"outputs":[{"name":"","type":"bool","internalType":"bool"}],"stateMutability":"nonpayable"},{"type":"function","name":"balanceOf","inputs":[{"name":"account","type":"address","internalType":"address"}],"outputs":[{"name":"","type":"uint256","internalType":"uint256"}],"stateMutability":"view"},{"type":"function","name":"balanceOfEncrypted","inputs":[{"name":"account","type":"address","internalType":"address"},{"name":"auth","type":"tuple","internalType":"struct Permission","components":[{"name":"publicKey","type":"bytes32","internalType":"bytes32"},{"name":"signature","type":"bytes","internalType":"bytes"}]}],"outputs":[{"name":"","type":"string","internalType":"string"}],"stateMutability":"view"},{"type":"function","name":"balanceOfEncrypted","inputs":[{"name":"account","type":"address","internalType":"address"}],"outputs":[{"name":"","type":"uint256","internalType":"euint128"}],"stateMutability":"view"},{"type":"function","name":"decimals","inputs":[],"outputs":[{"name":"","type":"uint8","internalType":"uint8"}],"stateMutability":"view"},{"type":"function","name":"eip712Domain","inputs":[],"outputs":[{"name":"fields","type":"bytes1","internalType":"bytes1"},{"name":"name","type":"string","internalType":"string"},{"name":"version","type":"string","internalType":"string"},{"name":"chainId","type":"uint256","internalType":"uint256"},{"name":"verifyingContract","type":"address","internalType":"address"},{"name":"salt","type":"bytes32","internalType":"bytes32"},{"name":"extensions","type":"uint256[]","internalType":"uint256[]"}],"stateMutability":"view"},{"type":"function","name":"name","inputs":[],"outputs":[{"name":"","type":"string","internalType":"string"}],"stateMutability":"view"},{"type":"function","name":"symbol","inputs":[],"outputs":[{"name":"","type":"string","internalType":"string"}],"stateMutability":"view"},{"type":"function","name":"totalSupply","inputs":[],"outputs":[{"name":"","type":"uint256","internalType":"uint256"}],"stateMutability":"view"},{"type":"function","name":"transfer","inputs":[{"name":"to","type":"address","internalType":"address"},{"name":"value","type":"uint256","internalType":"uint256"}],"outputs":[{"name":"","type":"bool","internalType":"bool"}],"stateMutability":"nonpayable"},{"type":"function","name":"transferEncrypted","inputs":[{"name":"to","type":"address","internalType":"address"},{"name":"amount","type":"uint256","internalType":"euint128"}],"outputs":[{"name":"","type":"uint256","internalType":"euint128"}],"stateMutability":"nonpayable"},{"type":"function","name":"transferEncrypted","inputs":[{"name":"to","type":"address","internalType":"address"},{"name":"encryptedAmount","type":"tuple","internalType":"struct inEuint128","components":[{"name":"data","type":"bytes","internalType":"bytes"},{"name":"securityZone","type":"int32","internalType":"int32"}]}],"outputs":[{"name":"","type":"uint256","internalType":"euint128"}],"stateMutability":"nonpayable"},{"type":"function","name":"transferFrom","inputs":[{"name":"from","type":"address","internalType":"address"},{"name":"to","type":"address","internalType":"address"},{"name":"value","type":"uint256","internalType":"uint256"}],"outputs":[{"name":"","type":"bool","internalType":"bool"}],"stateMutability":"nonpayable"},{"type":"function","name":"transferFromEncrypted","inputs":[{"name":"from","type":"address","internalType":"address"},{"name":"to","type":"address","internalType":"address"},{"name":"value","type":"uint256","internalType":"euint128"}],"outputs":[{"name":"","type":"uint256","internalType":"euint128"}],"stateMutability":"nonpayable"},{"type":"function","name":"transferFromEncrypted","inputs":[{"name":"from","type":"address","internalType":"address"},{"name":"to","type":"address","internalType":"address"},{"name":"value","type":"tuple","internalType":"struct inEuint128","components":[{"name":"data","type":"bytes","internalType":"bytes"},{"name":"securityZone","type":"int32","internalType":"int32"}]}],"outputs":[{"name":"","type":"uint256","internalType":"euint128"}],"stateMutability":"nonpayable"},{"type":"function","name":"unwrap","inputs":[{"name":"amount","type":"uint32","internalType":"uint32"}],"outputs":[],"stateMutability":"nonpayable"},{"type":"function","name":"wrap","inputs":[{"name":"amount","type":"uint32","internalType":"uint32"}],"outputs":[],"stateMutability":"nonpayable"},{"type":"event","name":"Approval","inputs":[{"name":"owner","type":"address","indexed":true,"internalType":"address"},{"name":"spender","type":"address","indexed":true,"internalType":"address"},{"name":"value","type":"uint256","indexed":false,"internalType":"uint256"}],"anonymous":false},{"type":"event","name":"ApprovalEncrypted","inputs":[{"name":"owner","type":"address","indexed":true,"internalType":"address"},{"name":"spender","type":"address","indexed":true,"internalType":"address"}],"anonymous":false},{"type":"event","name":"EIP712DomainChanged","inputs":[],"anonymous":false},{"type":"event","name":"Transfer","inputs":[{"name":"from","type":"address","indexed":true,"internalType":"address"},{"name":"to","type":"address","indexed":true,"internalType":"address"},{"name":"value","type":"uint256","indexed":false,"internalType":"uint256"}],"anonymous":false},{"type":"event","name":"TransferEncrypted","inputs":[{"name":"from","type":"address","indexed":true,"internalType":"address"},{"name":"to","type":"address","indexed":true,"internalType":"address"}],"anonymous":false},{"type":"error","name":"ECDSAInvalidSignature","inputs":[]},{"type":"error","name":"ECDSAInvalidSignatureLength","inputs":[{"name":"length","type":"uint256","internalType":"uint256"}]},{"type":"error","name":"ECDSAInvalidSignatureS","inputs":[{"name":"s","type":"bytes32","internalType":"bytes32"}]},{"type":"error","name":"ERC20InsufficientAllowance","inputs":[{"name":"spender","type":"address","internalType":"address"},{"name":"allowance","type":"uint256","internalType":"uint256"},{"name":"needed","type":"uint256","internalType":"uint256"}]},{"type":"error","name":"ERC20InsufficientBalance","inputs":[{"name":"sender","type":"address","internalType":"address"},{"name":"balance","type":"uint256","internalType":"uint256"},{"name":"needed","type":"uint256","internalType":"uint256"}]},{"type":"error","name":"ERC20InvalidApprover","inputs":[{"name":"approver","type":"address","internalType":"address"}]},{"type":"error","name":"ERC20InvalidReceiver","inputs":[{"name":"receiver","type":"address","internalType":"address"}]},{"type":"error","name":"ERC20InvalidSender","inputs":[{"name":"sender","type":"address","internalType":"address"}]},{"type":"error","name":"ERC20InvalidSpender","inputs":[{"name":"spender","type":"address","internalType":"address"}]},{"type":"error","name":"ErrorInsufficientFunds","inputs":[]},{"type":"error","name":"InvalidShortString","inputs":[]},{"type":"error","name":"SignerNotMessageSender","inputs":[]},{"type":"error","name":"SignerNotOwner","inputs":[]},{"type":"error","name":"StringTooLong","inputs":[{"name":"str","type":"string","internalType":"string"}]}],"bytecode":{"object":"0x61016060405261000e5f61015b565b60095534801561001c575f80fd5b506040516127c63803806127c683398101604081905261003b91610364565b60405180604001604052806011815260200170233432b734bc102832b936b4b9b9b4b7b760791b815250604051806040016040528060038152602001620312e360ec1b815250838381600390816100929190610447565b50600461009f8282610447565b506100af9150839050600561016e565b610120526100be81600661016e565b61014052815160208084019190912060e052815190820120610100524660a05261014a60e05161010051604080517f8b73c3c69bb8fe3d512ecc4cf759cc79239f7b179b0ffacaa9a75d522b39400f60208201529081019290925260608201524660808201523060a08201525f9060c00160405160208183030381529060405280519060200120905090565b60805250503060c052506105e09050565b5f6101688260048361019e565b92915050565b5f6020835110156101895761018283610228565b9050610168565b816101948482610447565b5060ff9392505050565b5f6060608063ba19ac286101b18761026e565b86866040518463ffffffff1660e01b81526004016101d193929190610531565b5f60405180830381865afa1580156101eb573d5f803e3d5ffd5b505050506040513d5f823e601f3d908101601f19168201604052610212919081019061055f565b905061021f816020015190565b95945050505050565b5f80829050601f8151111561025b578260405163305a27a960e01b815260040161025291906105ab565b60405180910390fd5b8051610266826105bd565b179392505050565b60408051602080825281830190925260609160208201818036833750505060208101929092525090565b634e487b7160e01b5f52604160045260245ffd5b5f5b838110156102c65781810151838201526020016102ae565b50505f910152565b5f6001600160401b03808411156102e7576102e7610298565b604051601f8501601f19908116603f0116810190828211818310171561030f5761030f610298565b81604052809350858152868686011115610327575f80fd5b6103358660208301876102ac565b5050509392505050565b5f82601f83011261034e575f80fd5b61035d838351602085016102ce565b9392505050565b5f8060408385031215610375575f80fd5b82516001600160401b038082111561038b575f80fd5b6103978683870161033f565b935060208501519150808211156103ac575f80fd5b506103b98582860161033f565b9150509250929050565b600181811c908216806103d757607f821691505b6020821081036103f557634e487b7160e01b5f52602260045260245ffd5b50919050565b601f82111561044257805f5260205f20601f840160051c810160208510156104205750805b601f840160051c820191505b8181101561043f575f815560010161042c565b50505b505050565b81516001600160401b0381111561046057610460610298565b6104748161046e84546103c3565b846103fb565b602080601f8311600181146104a7575f84156104905750858301515b5f19600386901b1c1916600185901b1785556104fe565b5f85815260208120601f198616915b828110156104d5578886015182559484019460019091019084016104b6565b50858210156104f257878501515f19600388901b60f8161c191681555b505060018460011b0185555b505050505050565b5f815180845261051d8160208601602086016102ac565b601f01601f19169290920160200192915050565b606081525f6105436060830186610506565b905060ff841660208301528260030b6040830152949350505050565b5f6020828403121561056f575f80fd5b81516001600160401b03811115610584575f80fd5b8201601f81018413610594575f80fd5b6105a3848251602084016102ce565b949350505050565b602081525f61035d6020830184610506565b805160208083015191908110156103f5575f1960209190910360031b1b16919050565b60805160a05160c05160e0516101005161012051610140516121956106315f395f610dae01525f610d7c01525f61134301525f61131b01525f61127601525f6112a001525f6112ca01526121955ff3fe608060405234801561000f575f80fd5b506004361061016e575f3560e01c806370a08231116100d2578063af575a0011610088578063ce03f2e111610063578063ce03f2e114610353578063dd62ed3e14610366578063dfbe0e2c146103ab575f80fd5b8063af575a00146102f8578063c33d0b561461030b578063c4224c1914610340575f80fd5b806395d89b41116100b857806395d89b41146102ca5780639f284be7146102d2578063a9059cbb146102e5575f80fd5b806370a082311461027a57806384b0196e146102af575f80fd5b8063313ce567116101275780635356c4291161010d5780635356c4291461023f57806360277204146102525780636e0505e114610265575f80fd5b8063313ce5671461021d578063398038ac1461022c575f80fd5b806318160ddd1161015757806318160ddd146101b357806323b872dd146101c557806323db9354146101d8575f80fd5b806306fdde0314610172578063095ea7b314610190575b5f80fd5b61017a6103be565b6040516101879190611af0565b60405180910390f35b6101a361019e366004611b2a565b61044e565b6040519015158152602001610187565b6002545b604051908152602001610187565b6101a36101d3366004611b52565b610467565b6101b76101e6366004611b8b565b73ffffffffffffffffffffffffffffffffffffffff9182165f90815260086020908152604080832093909416825291909152205490565b60405160128152602001610187565b6101a361023a366004611bd2565b61048c565b61017a61024d366004611bd2565b6104b1565b61017a610260366004611d6c565b6105c0565b610278610273366004611dad565b6106ba565b005b6101b7610288366004611dd0565b73ffffffffffffffffffffffffffffffffffffffff165f9081526020819052604090205490565b6102b761075e565b6040516101879796959493929190611de9565b61017a6107bc565b6102786102e0366004611dad565b6107cb565b6101a36102f3366004611b2a565b610878565b6101b7610306366004611b52565b610885565b6101b7610319366004611dd0565b73ffffffffffffffffffffffffffffffffffffffff165f9081526007602052604090205490565b6101b761034e366004611b2a565b6108aa565b6101b7610361366004611bd2565b6108b6565b6101b7610374366004611b8b565b73ffffffffffffffffffffffffffffffffffffffff9182165f90815260016020908152604080832093909416825291909152205490565b6101b76103b9366004611ea9565b6108c7565b6060600380546103cd90611f03565b80601f01602080910402602001604051908101604052809291908181526020018280546103f990611f03565b80156104445780601f1061041b57610100808354040283529160200191610444565b820191905f5260205f20905b81548152906001019060200180831161042757829003601f168201915b5050505050905090565b5f3361045b8185856108e3565b60019150505b92915050565b5f336104748582856108f0565b61047f8585856109c2565b60019150505b9392505050565b5f6104a833846104a361049e86611f4e565b610a6b565b610a7d565b50600192915050565b60606104bc82611fa9565b80516040515f91610519916104fe917f6bdaeb2d29561f159c7ef98b16b27015fb2aeb87209c7ee656226d912f59927d91602001918252602082015260400190565b60405160208183030381529060405280519060200120610b53565b90505f61052a828460200151610b9a565b905073ffffffffffffffffffffffffffffffffffffffff8116331461057b576040517f3093a27700000000000000000000000000000000000000000000000000000000815260040160405180910390fd5b335f90815260086020908152604080832073ffffffffffffffffffffffffffffffffffffffff8a1684529091529020546105b6908635610bc2565b9695505050505050565b606081835f6106077f6bdaeb2d29561f159c7ef98b16b27015fb2aeb87209c7ee656226d912f59927d845f01516040516020016104fe929190918252602082015260400190565b90505f610618828560200151610b9a565b90508273ffffffffffffffffffffffffffffffffffffffff168173ffffffffffffffffffffffffffffffffffffffff161461067f576040517f51c65eae00000000000000000000000000000000000000000000000000000000815260040160405180910390fd5b855173ffffffffffffffffffffffffffffffffffffffff88165f908152600760205260409020546106af91610bea565b979650505050505050565b5f6106ca8263ffffffff16610bf6565b335f90815260076020526040812054919250906106fa906106eb9084610c03565b836106f55f610bf6565b610c0e565b335f908152600760205260409020549091506107169082610c5f565b335f908152600760205260409020556009546107329082610c5f565b6009556107593361074283610c6a565b6fffffffffffffffffffffffffffffffff16610d17565b505050565b5f6060805f805f606061076f610d75565b610777610da7565b604080515f808252602082019092527f0f000000000000000000000000000000000000000000000000000000000000009b939a50919850469750309650945092509050565b6060600480546103cd90611f03565b335f9081526020819052604090205463ffffffff82161115610819576040517ffda7bbda00000000000000000000000000000000000000000000000000000000815260040160405180910390fd5b610829338263ffffffff16610dd4565b5f6108398263ffffffff16610bf6565b335f908152600760205260409020549091506108559082610e2e565b335f908152600760205260409020556009546108719082610e2e565b6009555050565b5f3361045b8185856109c2565b5f8181610893863384610e39565b90506108a0868683610e89565b5095945050505050565b5f610485338484610e89565b5f6104858361034e61049e85611f4e565b5f806108d561049e84611f4e565b90505f610893863384610e39565b6107598383836001610f64565b73ffffffffffffffffffffffffffffffffffffffff8381165f908152600160209081526040808320938616835292905220547fffffffffffffffffffffffffffffffffffffffffffffffffffffffffffffffff81146109bc57818110156109ae576040517ffb8f41b200000000000000000000000000000000000000000000000000000000815273ffffffffffffffffffffffffffffffffffffffff8416600482015260248101829052604481018390526064015b60405180910390fd5b6109bc84848484035f610f64565b50505050565b73ffffffffffffffffffffffffffffffffffffffff8316610a11576040517f96c6fd1e0000000000000000000000000000000000000000000000000000000081525f60048201526024016109a5565b73ffffffffffffffffffffffffffffffffffffffff8216610a60576040517fec442f050000000000000000000000000000000000000000000000000000000081525f60048201526024016109a5565b6107598383836110a9565b5f610461825f01518360200151611250565b73ffffffffffffffffffffffffffffffffffffffff8316610acc576040517fe602df050000000000000000000000000000000000000000000000000000000081525f60048201526024016109a5565b73ffffffffffffffffffffffffffffffffffffffff8216610b1b576040517f94280d620000000000000000000000000000000000000000000000000000000081525f60048201526024016109a5565b73ffffffffffffffffffffffffffffffffffffffff9283165f9081526008602090815260408083209490951682529290925291902055565b5f610461610b5f61125d565b836040517f19010000000000000000000000000000000000000000000000000000000000008152600281019290925260228201526042902090565b5f805f80610ba88686611393565b925092509250610bb882826113dc565b5090949350505050565b606082610bd557610bd25f610bf6565b92505b82610be2600482856114df565b949350505050565b60606104858383610bc2565b5f6104618260045f61156c565b5f61048583836115ed565b5f83610c2057610c1d5f611626565b93505b82610c3157610c2e5f610bf6565b92505b81610c4257610c3f5f610bf6565b91505b8383835f610c536004858585611633565b98975050505050505050565b5f61048583836116c6565b5f81610c7c57610c795f610bf6565b91505b815f610c87826116ff565b6040517f73cc01540000000000000000000000000000000000000000000000000000000081529091505f906080906373cc015490610ccb9060049086908201611fb4565b602060405180830381865afa158015610ce6573d5f803e3d5ffd5b505050506040513d601f19601f82011682018060405250810190610d0a9190611fcf565b9050805b95945050505050565b73ffffffffffffffffffffffffffffffffffffffff8216610d66576040517fec442f050000000000000000000000000000000000000000000000000000000081525f60048201526024016109a5565b610d715f83836110a9565b5050565b6060610da27f00000000000000000000000000000000000000000000000000000000000000006005611729565b905090565b6060610da27f00000000000000000000000000000000000000000000000000000000000000006006611729565b73ffffffffffffffffffffffffffffffffffffffff8216610e23576040517f96c6fd1e0000000000000000000000000000000000000000000000000000000081525f60048201526024016109a5565b610d71825f836110a9565b5f61048583836117d2565b73ffffffffffffffffffffffffffffffffffffffff8084165f9081526008602090815260408083209386168352929052908120545f610e78828561180a565b9050610d0e86866104a38585610c5f565b73ffffffffffffffffffffffffffffffffffffffff83165f908152600760205260408120548190610ec990610ebf908590611843565b846106f55f610bf6565b73ffffffffffffffffffffffffffffffffffffffff85165f90815260076020526040902054909150610efb9082610e2e565b73ffffffffffffffffffffffffffffffffffffffff8086165f908152600760205260408082209390935590871681522054610f369082610c5f565b73ffffffffffffffffffffffffffffffffffffffff86165f9081526007602052604090205590509392505050565b73ffffffffffffffffffffffffffffffffffffffff8416610fb3576040517fe602df050000000000000000000000000000000000000000000000000000000081525f60048201526024016109a5565b73ffffffffffffffffffffffffffffffffffffffff8316611002576040517f94280d620000000000000000000000000000000000000000000000000000000081525f60048201526024016109a5565b73ffffffffffffffffffffffffffffffffffffffff8085165f90815260016020908152604080832093871683529290522082905580156109bc578273ffffffffffffffffffffffffffffffffffffffff168473ffffffffffffffffffffffffffffffffffffffff167f8c5be1e5ebec7d5bd14f71427d1e84f3dd0314c0f7b2291e5b200ac8c7c3b9258460405161109b91815260200190565b60405180910390a350505050565b73ffffffffffffffffffffffffffffffffffffffff83166110e0578060025f8282546110d59190611fe6565b909155506111909050565b73ffffffffffffffffffffffffffffffffffffffff83165f9081526020819052604090205481811015611165576040517fe450d38c00000000000000000000000000000000000000000000000000000000815273ffffffffffffffffffffffffffffffffffffffff8516600482015260248101829052604481018390526064016109a5565b73ffffffffffffffffffffffffffffffffffffffff84165f9081526020819052604090209082900390555b73ffffffffffffffffffffffffffffffffffffffff82166111b9576002805482900390556111e4565b73ffffffffffffffffffffffffffffffffffffffff82165f9081526020819052604090208054820190555b8173ffffffffffffffffffffffffffffffffffffffff168373ffffffffffffffffffffffffffffffffffffffff167fddf252ad1be2c89b69c2b068fc378daa952ba7f163c4a11628f55a4df523b3ef8360405161124391815260200190565b60405180910390a3505050565b5f6104858360048461184e565b5f3073ffffffffffffffffffffffffffffffffffffffff7f0000000000000000000000000000000000000000000000000000000000000000161480156112c257507f000000000000000000000000000000000000000000000000000000000000000046145b156112ec57507f000000000000000000000000000000000000000000000000000000000000000090565b610da2604080517f8b73c3c69bb8fe3d512ecc4cf759cc79239f7b179b0ffacaa9a75d522b39400f60208201527f0000000000000000000000000000000000000000000000000000000000000000918101919091527f000000000000000000000000000000000000000000000000000000000000000060608201524660808201523060a08201525f9060c00160405160208183030381529060405280519060200120905090565b5f805f83516041036113ca576020840151604085015160608601515f1a6113bc88828585611894565b9550955095505050506113d5565b505081515f91506002905b9250925092565b5f8260038111156113ef576113ef61201e565b036113f8575050565b600182600381111561140c5761140c61201e565b03611443576040517ff645eedf00000000000000000000000000000000000000000000000000000000815260040160405180910390fd5b60028260038111156114575761145761201e565b03611491576040517ffce698f7000000000000000000000000000000000000000000000000000000008152600481018290526024016109a5565b60038260038111156114a5576114a561201e565b03610d71576040517fd78bce0c000000000000000000000000000000000000000000000000000000008152600481018290526024016109a5565b6060608063a1848ff3856114f2866116ff565b6040805160208101889052016040516020818303038152906040526040518463ffffffff1660e01b815260040161152b9392919061204b565b5f60405180830381865afa158015611545573d5f803e3d5ffd5b505050506040513d5f823e601f3d908101601f19168201604052610be291908101906120a6565b5f6060608063ba19ac2861157f876116ff565b86866040518463ffffffff1660e01b815260040161159f939291906120eb565b5f60405180830381865afa1580156115b9573d5f803e3d5ffd5b505050506040513d5f823e601f3d908101601f191682016040526115e091908101906120a6565b9050610d0e816020015190565b5f826115ff576115fc5f610bf6565b92505b816116105761160d5f610bf6565b91505b82825f6105b660048484608063650de1cf611969565b5f61046182600d5f61156c565b5f6060608063c2d9695287611647886116ff565b611650886116ff565b611659886116ff565b6040518563ffffffff1660e01b81526004016116789493929190612119565b5f60405180830381865afa158015611692573d5f803e3d5ffd5b505050506040513d5f823e601f3d908101601f191682016040526116b991908101906120a6565b90506105b6816020015190565b5f826116d8576116d55f610bf6565b92505b816116e9576116e65f610bf6565b91505b82825f6105b660048484608063cc2cbeff611969565b60408051602080825281830190925260609160208201818036833750505060208101929092525090565b606060ff83146117435761173c836119ed565b9050610461565b81805461174f90611f03565b80601f016020809104026020016040519081016040528092919081815260200182805461177b90611f03565b80156117c65780601f1061179d576101008083540402835291602001916117c6565b820191905f5260205f20905b8154815290600101906020018083116117a957829003601f168201915b50505050509050610461565b5f826117e4576117e15f610bf6565b92505b816117f5576117f25f610bf6565b91505b82825f6105b6600484846080622df619611969565b5f8261181c576118195f610bf6565b92505b8161182d5761182a5f610bf6565b91505b82825f6105b6600484846080635211c679611969565b5f6104858383611a2a565b6040517f21b50ba30000000000000000000000000000000000000000000000000000000081525f906060906080906321b50ba39061159f9087908990889060040161215a565b5f80807f7fffffffffffffffffffffffffffffff5d576e7357a4501ddfe92f46681b20a08411156118cd57505f9150600390508261195f565b604080515f808252602082018084528a905260ff891692820192909252606081018790526080810186905260019060a0016020604051602081039080840390855afa15801561191e573d5f803e3d5ffd5b5050604051601f19015191505073ffffffffffffffffffffffffffffffffffffffff811661195657505f92506001915082905061195f565b92505f91508190505b9450945094915050565b5f6060838388611978896116ff565b611981896116ff565b6040518463ffffffff1660e01b815260040161199f9392919061204b565b5f60405180830381865afa1580156119b9573d5f803e3d5ffd5b505050506040513d5f823e601f3d908101601f191682016040526119e091908101906120a6565b90506106af816020015190565b60605f6119f983611a63565b6040805160208082528183019092529192505f91906020820181803683375050509182525060208101929092525090565b5f82611a3c57611a395f610bf6565b92505b81611a4d57611a4a5f610bf6565b91505b82825f6105b660048484608063eb274b77611969565b5f60ff8216601f811115610461576040517fb3512b0c00000000000000000000000000000000000000000000000000000000815260040160405180910390fd5b5f5b83811015611abd578181015183820152602001611aa5565b50505f910152565b5f8151808452611adc816020860160208601611aa3565b601f01601f19169290920160200192915050565b602081525f6104856020830184611ac5565b803573ffffffffffffffffffffffffffffffffffffffff81168114611b25575f80fd5b919050565b5f8060408385031215611b3b575f80fd5b611b4483611b02565b946020939093013593505050565b5f805f60608486031215611b64575f80fd5b611b6d84611b02565b9250611b7b60208501611b02565b9150604084013590509250925092565b5f8060408385031215611b9c575f80fd5b611ba583611b02565b9150611bb360208401611b02565b90509250929050565b5f60408284031215611bcc575f80fd5b50919050565b5f8060408385031215611be3575f80fd5b611bec83611b02565b9150602083013567ffffffffffffffff811115611c07575f80fd5b611c1385828601611bbc565b9150509250929050565b7f4e487b71000000000000000000000000000000000000000000000000000000005f52604160045260245ffd5b6040805190810167ffffffffffffffff81118282101715611c6d57611c6d611c1d565b60405290565b604051601f8201601f1916810167ffffffffffffffff81118282101715611c9c57611c9c611c1d565b604052919050565b5f67ffffffffffffffff821115611cbd57611cbd611c1d565b50601f01601f191660200190565b5f82601f830112611cda575f80fd5b8135611ced611ce882611ca4565b611c73565b818152846020838601011115611d01575f80fd5b816020850160208301375f918101602001919091529392505050565b5f60408284031215611d2d575f80fd5b611d35611c4a565b905081358152602082013567ffffffffffffffff811115611d54575f80fd5b611d6084828501611ccb565b60208301525092915050565b5f8060408385031215611d7d575f80fd5b611d8683611b02565b9150602083013567ffffffffffffffff811115611da1575f80fd5b611c1385828601611d1d565b5f60208284031215611dbd575f80fd5b813563ffffffff81168114610485575f80fd5b5f60208284031215611de0575f80fd5b61048582611b02565b7fff00000000000000000000000000000000000000000000000000000000000000881681525f602060e06020840152611e2560e084018a611ac5565b8381036040850152611e37818a611ac5565b6060850189905273ffffffffffffffffffffffffffffffffffffffff8816608086015260a0850187905284810360c0860152855180825260208088019350909101905f5b81811015611e9757835183529284019291840191600101611e7b565b50909c9b505050505050505050505050565b5f805f60608486031215611ebb575f80fd5b611ec484611b02565b9250611ed260208501611b02565b9150604084013567ffffffffffffffff811115611eed575f80fd5b611ef986828701611bbc565b9150509250925092565b600181811c90821680611f1757607f821691505b602082108103611bcc577f4e487b71000000000000000000000000000000000000000000000000000000005f52602260045260245ffd5b5f60408236031215611f5e575f80fd5b611f66611c4a565b823567ffffffffffffffff811115611f7c575f80fd5b611f8836828601611ccb565b82525060208301358060030b8114611f9e575f80fd5b602082015292915050565b5f6104613683611d1d565b60ff83168152604060208201525f610be26040830184611ac5565b5f60208284031215611fdf575f80fd5b5051919050565b80820180821115610461577f4e487b71000000000000000000000000000000000000000000000000000000005f52601160045260245ffd5b7f4e487b71000000000000000000000000000000000000000000000000000000005f52602160045260245ffd5b60ff84168152606060208201525f6120666060830185611ac5565b82810360408401526105b68185611ac5565b5f612085611ce884611ca4565b9050828152838383011115612098575f80fd5b610485836020830184611aa3565b5f602082840312156120b6575f80fd5b815167ffffffffffffffff8111156120cc575f80fd5b8201601f810184136120dc575f80fd5b610be284825160208401612078565b606081525f6120fd6060830186611ac5565b905060ff841660208301528260030b6040830152949350505050565b60ff85168152608060208201525f6121346080830186611ac5565b82810360408401526121468186611ac5565b905082810360608401526106af8185611ac5565b60ff84168152606060208201525f6121756060830185611ac5565b90508260030b604083015294935050505056fea164736f6c6343000819000a","linkReferences":{}},"methodIdentifiers":{"_allowanceEncrypted(address,address)":"23db9354","allowance(address,address)":"dd62ed3e","allowanceEncrypted(address,(bytes32,bytes))":"5356c429","approve(address,uint256)":"095ea7b3","approveEncrypted(address,(bytes,int32))":"398038ac","balanceOf(address)":"70a08231","balanceOfEncrypted(address)":"c33d0b56","balanceOfEncrypted(address,(bytes32,bytes))":"60277204","decimals()":"313ce567","eip712Domain()":"84b0196e","name()":"06fdde03","symbol()":"95d89b41","totalSupply()":"18160ddd","transfer(address,uint256)":"a9059cbb","transferEncrypted(address,(bytes,int32))":"ce03f2e1","transferEncrypted(address,uint256)":"c4224c19","transferFrom(address,address,uint256)":"23b872dd","transferFromEncrypted(address,address,(bytes,int32))":"dfbe0e2c","transferFromEncrypted(address,address,uint256)":"af575a00","unwrap(uint32)":"6e0505e1","wrap(uint32)":"9f284be7"},"id":44}