{"abi":[{"type":"function","name":"createNewVestingSchedule","inputs":[{"name":"beneficiary","type":"address","internalType":"address"},{"name":"token","type":"address","internalType":"address"},{"name":"amount","type":"uint256","internalType":"euint32"},{"name":"startTimestamp","type":"uint256","internalType":"euint32"},{"name":"durationSeconds","type":"uint256","internalType":"euint32"}],"outputs":[],"stateMutability":"nonpayable"},{"type":"function","name":"duration","inputs":[{"name":"permission","type":"tuple","internalType":"struct Permission","components":[{"name":"publicKey","type":"bytes32","internalType":"bytes32"},{"name":"signature","type":"bytes","internalType":"bytes"}]},{"name":"beneficiary","type":"address","internalType":"address"},{"name":"token","type":"address","internalType":"address"}],"outputs":[{"name":"","type":"string","internalType":"string"}],"stateMutability":"view"},{"type":"function","name":"eip712Domain","inputs":[],"outputs":[{"name":"fields","type":"bytes1","internalType":"bytes1"},{"name":"name","type":"string","internalType":"string"},{"name":"version","type":"string","internalType":"string"},{"name":"chainId","type":"uint256","internalType":"uint256"},{"name":"verifyingContract","type":"address","internalType":"address"},{"name":"salt","type":"bytes32","internalType":"bytes32"},{"name":"extensions","type":"uint256[]","internalType":"uint256[]"}],"stateMutability":"view"},{"type":"function","name":"end","inputs":[{"name":"permission","type":"tuple","internalType":"struct Permission","components":[{"name":"publicKey","type":"bytes32","internalType":"bytes32"},{"name":"signature","type":"bytes","internalType":"bytes"}]},{"name":"beneficiary","type":"address","internalType":"address"},{"name":"token","type":"address","internalType":"address"}],"outputs":[{"name":"","type":"string","internalType":"string"}],"stateMutability":"view"},{"type":"function","name":"releasable","inputs":[{"name":"beneficiary","type":"address","internalType":"address"},{"name":"token","type":"address","internalType":"address"}],"outputs":[{"name":"","type":"uint256","internalType":"euint32"}],"stateMutability":"view"},{"type":"function","name":"release","inputs":[{"name":"beneficiary","type":"address","internalType":"address"},{"name":"token","type":"address","internalType":"address"}],"outputs":[],"stateMutability":"nonpayable"},{"type":"function","name":"released","inputs":[{"name":"permission","type":"tuple","internalType":"struct Permission","components":[{"name":"publicKey","type":"bytes32","internalType":"bytes32"},{"name":"signature","type":"bytes","internalType":"bytes"}]},{"name":"beneficiary","type":"address","internalType":"address"},{"name":"token","type":"address","internalType":"address"}],"outputs":[{"name":"","type":"string","internalType":"string"}],"stateMutability":"view"},{"type":"function","name":"start","inputs":[{"name":"permission","type":"tuple","internalType":"struct Permission","components":[{"name":"publicKey","type":"bytes32","internalType":"bytes32"},{"name":"signature","type":"bytes","internalType":"bytes"}]},{"name":"beneficiary","type":"address","internalType":"address"},{"name":"token","type":"address","internalType":"address"}],"outputs":[{"name":"","type":"string","internalType":"string"}],"stateMutability":"view"},{"type":"function","name":"vestedAmount","inputs":[{"name":"beneficiary","type":"address","internalType":"address"},{"name":"token","type":"address","internalType":"address"},{"name":"currentTimestamp","type":"uint256","internalType":"euint32"}],"outputs":[{"name":"","type":"uint256","internalType":"euint32"}],"stateMutability":"view"},{"type":"event","name":"EIP712DomainChanged","inputs":[],"anonymous":false},{"type":"error","name":"ECDSAInvalidSignature","inputs":[]},{"type":"error","name":"ECDSAInvalidSignatureLength","inputs":[{"name":"length","type":"uint256","internalType":"uint256"}]},{"type":"error","name":"ECDSAInvalidSignatureS","inputs":[{"name":"s","type":"bytes32","internalType":"bytes32"}]},{"type":"error","name":"FHEVestingWallet__DuplicateError","inputs":[{"name":"beneficiary","type":"address","internalType":"address"},{"name":"token","type":"address","internalType":"address"}]},{"type":"error","name":"InvalidShortString","inputs":[]},{"type":"error","name":"SignerNotMessageSender","inputs":[]},{"type":"error","name":"SignerNotOwner","inputs":[]},{"type":"error","name":"StringTooLong","inputs":[{"name":"str","type":"string","internalType":"string"}]}],"bytecode":{"object":"0x61018060405261000e5f610114565b6101605234801561001d575f80fd5b506040805180820182526011815270233432b734bc102832b936b4b9b9b4b7b760791b602080830191909152825180840190935260038352620312e360ec1b908301529061006b825f610127565b6101205261007a816001610127565b61014052815160208084019190912060e052815190820120610100524660a05261010660e05161010051604080517f8b73c3c69bb8fe3d512ecc4cf759cc79239f7b179b0ffacaa9a75d522b39400f60208201529081019290925260608201524660808201523060a08201525f9060c00160405160208183030381529060405280519060200120905090565b60805250503060c052610506565b5f61012182600283610157565b92915050565b5f6020835110156101425761013b836101e1565b9050610121565b8161014d84826102e9565b5060ff9392505050565b5f6060608063ba19ac2861016a87610227565b86866040518463ffffffff1660e01b815260040161018a939291906103f5565b5f60405180830381865afa1580156101a4573d5f803e3d5ffd5b505050506040513d5f823e601f3d908101601f191682016040526101cb9190810190610423565b90506101d8816020015190565b95945050505050565b5f80829050601f81511115610214578260405163305a27a960e01b815260040161020b91906104ca565b60405180910390fd5b805161021f826104e3565b179392505050565b60408051602080825281830190925260609160208201818036833750505060208101929092525090565b634e487b7160e01b5f52604160045260245ffd5b600181811c9082168061027957607f821691505b60208210810361029757634e487b7160e01b5f52602260045260245ffd5b50919050565b601f8211156102e457805f5260205f20601f840160051c810160208510156102c25750805b601f840160051c820191505b818110156102e1575f81556001016102ce565b50505b505050565b81516001600160401b0381111561030257610302610251565b610316816103108454610265565b8461029d565b602080601f831160018114610349575f84156103325750858301515b5f19600386901b1c1916600185901b1785556103a0565b5f85815260208120601f198616915b8281101561037757888601518255948401946001909101908401610358565b508582101561039457878501515f19600388901b60f8161c191681555b505060018460011b0185555b505050505050565b5f5b838110156103c25781810151838201526020016103aa565b50505f910152565b5f81518084526103e18160208601602086016103a8565b601f01601f19169290920160200192915050565b606081525f61040760608301866103ca565b905060ff841660208301528260030b6040830152949350505050565b5f60208284031215610433575f80fd5b81516001600160401b0380821115610449575f80fd5b818401915084601f83011261045c575f80fd5b81518181111561046e5761046e610251565b604051601f8201601f19908116603f0116810190838211818310171561049657610496610251565b816040528281528760208487010111156104ae575f80fd5b6104bf8360208301602088016103a8565b979650505050505050565b602081525f6104dc60208301846103ca565b9392505050565b80516020808301519190811015610297575f1960209190910360031b1b16919050565b60805160a05160c05160e05161010051610120516101405161016051611a336105685f395f81816104df0152610a9501525f610b5601525f610b2501525f610d2301525f610cfb01525f610c5601525f610c8001525f610caa0152611a335ff3fe608060405234801561000f575f80fd5b506004361061009f575f3560e01c806384b0196e11610072578063c45ac05011610058578063c45ac05014610143578063c77b43e614610156578063d1a3278414610169575f80fd5b806384b0196e14610115578063b504ecc314610130575f80fd5b806315026bad146100a35780631704f229146100cc5780631738eb16146100ed57806348b7504414610102575b5f80fd5b6100b66100b13660046114f7565b61017c565b6040516100c391906115a2565b60405180910390f35b6100df6100da3660046115b4565b610291565b6040519081526020016100c3565b6101006100fb3660046115ed565b610317565b005b610100610110366004611636565b61056b565b61011d61069a565b6040516100c39796959493929190611667565b6100b661013e3660046114f7565b6106f8565b6100df610151366004611636565b6107e7565b6100b66101643660046114f7565b610844565b6100b66101773660046114f7565b610933565b6060610187846117ac565b80516040515f916101e4916101c9917f6bdaeb2d29561f159c7ef98b16b27015fb2aeb87209c7ee656226d912f59927d91602001918252602082015260400190565b604051602081830303815290604052805190602001206109f6565b90505f6101f5828460200151610a3d565b905073ffffffffffffffffffffffffffffffffffffffff81163314610246576040517f3093a27700000000000000000000000000000000000000000000000000000000815260040160405180910390fd5b73ffffffffffffffffffffffffffffffffffffffff8087165f90815260026020908152604080832093891683529290522060040154610286908835610a65565b979650505050505050565b73ffffffffffffffffffffffffffffffffffffffff8084165f90815260026020818152604080842087861685528252808420815160a08101835281549096168652600181015492860183905292830154908501819052600383015460608601819052600490930154608086015292939261030c928690610a85565b9150505b9392505050565b73ffffffffffffffffffffffffffffffffffffffff8086165f9081526002602081815260408084208986168552825292839020835160a0810185528154909516808652600182015492860192909252918201549284019290925260038101546060840152600401546080830152156103e0576040517f0583b97400000000000000000000000000000000000000000000000000000000815273ffffffffffffffffffffffffffffffffffffffff8088166004830152861660248201526044015b60405180910390fd5b8473ffffffffffffffffffffffffffffffffffffffff1663af575a00333061040788610ace565b6040517fffffffff0000000000000000000000000000000000000000000000000000000060e086901b16815273ffffffffffffffffffffffffffffffffffffffff938416600482015292909116602483015260448201526064016020604051808303815f875af115801561047d573d5f803e3d5ffd5b505050506040513d601f19601f820116820180604052508101906104a19190611854565b50506040805160a08101825273ffffffffffffffffffffffffffffffffffffffff9687168082526020808301968752828401958652606083019485527f0000000000000000000000000000000000000000000000000000000000000000608084019081525f9283526002808352858420998b16845298909152929020905181547fffffffffffffffffffffffff0000000000000000000000000000000000000000169716969096178655925160018601559051928401929092559051600383015551600490910155565b5f61057683836107e7565b73ffffffffffffffffffffffffffffffffffffffff8085165f908152600260209081526040808320938716835292905220600401549091506105b88183610adc565b73ffffffffffffffffffffffffffffffffffffffff8086165f9081526002602090815260408083209388168084529390915290206004019190915563c4224c198561060285610ace565b6040517fffffffff0000000000000000000000000000000000000000000000000000000060e085901b16815273ffffffffffffffffffffffffffffffffffffffff909216600483015260248201526044016020604051808303815f875af115801561066f573d5f803e3d5ffd5b505050506040513d601f19601f820116820180604052508101906106939190611854565b5050505050565b5f6060805f805f60606106ab610b1e565b6106b3610b4f565b604080515f808252602082019092527f0f000000000000000000000000000000000000000000000000000000000000009b939a50919850469750309650945092509050565b6060610703846117ac565b80516040515f91610745916101c9917f6bdaeb2d29561f159c7ef98b16b27015fb2aeb87209c7ee656226d912f59927d91602001918252602082015260400190565b90505f610756828460200151610a3d565b905073ffffffffffffffffffffffffffffffffffffffff811633146107a7576040517f3093a27700000000000000000000000000000000000000000000000000000000815260040160405180910390fd5b73ffffffffffffffffffffffffffffffffffffffff8087165f90815260026020908152604080832093891683529290522060030154610286908835610a65565b5f806107f784846100da42610b7c565b73ffffffffffffffffffffffffffffffffffffffff8086165f9081526002602090815260408083209388168352929052206004015490915061083a908290610b89565b9150505b92915050565b606061084f846117ac565b80516040515f91610891916101c9917f6bdaeb2d29561f159c7ef98b16b27015fb2aeb87209c7ee656226d912f59927d91602001918252602082015260400190565b90505f6108a2828460200151610a3d565b905073ffffffffffffffffffffffffffffffffffffffff811633146108f3576040517f3093a27700000000000000000000000000000000000000000000000000000000815260040160405180910390fd5b73ffffffffffffffffffffffffffffffffffffffff8087165f908152600260208181526040808420948a1684529390529190200154610286908835610a65565b606061093e846117ac565b80516040515f91610980916101c9917f6bdaeb2d29561f159c7ef98b16b27015fb2aeb87209c7ee656226d912f59927d91602001918252602082015260400190565b90505f610991828460200151610a3d565b905073ffffffffffffffffffffffffffffffffffffffff811633146109e2576040517f3093a27700000000000000000000000000000000000000000000000000000000815260040160405180910390fd5b6102866109ef8787610bc2565b8835610a65565b5f61083e610a02610c3d565b836040517f19010000000000000000000000000000000000000000000000000000000000008152600281019290925260228201526042902090565b5f805f80610a4b8686610d73565b925092509250610a5b8282610dbc565b5090949350505050565b606082610a7857610a755f610b7c565b92505b8261083a60028285610ec3565b5f610ac5610a938486610f58565b7f0000000000000000000000000000000000000000000000000000000000000000610ac088888888610f91565b610fb5565b95945050505050565b5f61083e6002836004611006565b5f82610aee57610aeb5f610b7c565b92505b81610aff57610afc5f610b7c565b91505b82825f610b14600284846080622df619611087565b9695505050505050565b6060610b4a7f00000000000000000000000000000000000000000000000000000000000000005f61110b565b905090565b6060610b4a7f0000000000000000000000000000000000000000000000000000000000000000600161110b565b5f61083e8260025f6111b4565b5f82610b9b57610b985f610b7c565b92505b81610bac57610ba95f610b7c565b91505b82825f610b1460028484608063cc2cbeff611087565b73ffffffffffffffffffffffffffffffffffffffff8083165f90815260026020818152604080842086861685528252808420815160a0810183528154909616865260018101549286019290925291810154918401829052600381015460608501819052600490910154608085015291929161083a9190610adc565b5f3073ffffffffffffffffffffffffffffffffffffffff7f000000000000000000000000000000000000000000000000000000000000000016148015610ca257507f000000000000000000000000000000000000000000000000000000000000000046145b15610ccc57507f000000000000000000000000000000000000000000000000000000000000000090565b610b4a604080517f8b73c3c69bb8fe3d512ecc4cf759cc79239f7b179b0ffacaa9a75d522b39400f60208201527f0000000000000000000000000000000000000000000000000000000000000000918101919091527f000000000000000000000000000000000000000000000000000000000000000060608201524660808201523060a08201525f9060c00160405160208183030381529060405280519060200120905090565b5f805f8351604103610daa576020840151604085015160608601515f1a610d9c888285856111e7565b955095509550505050610db5565b505081515f91506002905b9250925092565b5f826003811115610dcf57610dcf61186b565b03610dd8575050565b6001826003811115610dec57610dec61186b565b03610e23576040517ff645eedf00000000000000000000000000000000000000000000000000000000815260040160405180910390fd5b6002826003811115610e3757610e3761186b565b03610e71576040517ffce698f7000000000000000000000000000000000000000000000000000000008152600481018290526024016103d7565b6003826003811115610e8557610e8561186b565b03610ebf576040517fd78bce0c000000000000000000000000000000000000000000000000000000008152600481018290526024016103d7565b5050565b6060608063a1848ff385610ed6866112bc565b6040805160208101889052016040516020818303038152906040526040518463ffffffff1660e01b8152600401610f0f93929190611898565b5f60405180830381865afa158015610f29573d5f803e3d5ffd5b505050506040513d5f823e601f3d908101601f19168201604052610f5091908101906118f3565b949350505050565b5f82610f6a57610f675f610b7c565b92505b81610f7b57610f785f610b7c565b91505b82825f610b1460028484608063b9c7a54b611087565b5f610ac5610fa884610fa38786610adc565b6112e6565b86610ac08887898861131f565b5f83610fc757610fc45f611340565b93505b82610fd857610fd55f610b7c565b92505b81610fe957610fe65f610b7c565b91505b8383835f610ffa600285858561134d565b98975050505050505050565b5f60606080634a5a11178661101a876112bc565b866040518463ffffffff1660e01b815260040161103993929190611938565b5f60405180830381865afa158015611053573d5f803e3d5ffd5b505050506040513d5f823e601f3d908101601f1916820160405261107a91908101906118f3565b905061030c816020015190565b5f6060838388611096896112bc565b61109f896112bc565b6040518463ffffffff1660e01b81526004016110bd93929190611898565b5f60405180830381865afa1580156110d7573d5f803e3d5ffd5b505050506040513d5f823e601f3d908101601f191682016040526110fe91908101906118f3565b9050610286816020015190565b606060ff83146111255761111e836113e0565b905061083e565b81805461113190611966565b80601f016020809104026020016040519081016040528092919081815260200182805461115d90611966565b80156111a85780601f1061117f576101008083540402835291602001916111a8565b820191905f5260205f20905b81548152906001019060200180831161118b57829003601f168201915b5050505050905061083e565b5f6060608063ba19ac286111c7876112bc565b86866040518463ffffffff1660e01b8152600401611039939291906119b7565b5f80807f7fffffffffffffffffffffffffffffff5d576e7357a4501ddfe92f46681b20a084111561122057505f915060039050826112b2565b604080515f808252602082018084528a905260ff891692820192909252606081018790526080810186905260019060a0016020604051602081039080840390855afa158015611271573d5f803e3d5ffd5b5050604051601f19015191505073ffffffffffffffffffffffffffffffffffffffff81166112a957505f9250600191508290506112b2565b92505f91508190505b9450945094915050565b60408051602080825281830190925260609160208201818036833750505060208101929092525090565b5f826112f8576112f55f610b7c565b92505b81611309576113065f610b7c565b91505b82825f610b1460028484608063650de1cf611087565b5f806113348661132f8787610b89565b61141d565b9050610b148184611456565b5f61083e82600d5f6111b4565b5f6060608063c2d9695287611361886112bc565b61136a886112bc565b611373886112bc565b6040518563ffffffff1660e01b815260040161139294939291906119e5565b5f60405180830381865afa1580156113ac573d5f803e3d5ffd5b505050506040513d5f823e601f3d908101601f191682016040526113d391908101906118f3565b9050610b14816020015190565b60605f6113ec8361148f565b6040805160208082528183019092529192505f91906020820181803683375050509182525060208101929092525090565b5f8261142f5761142c5f610b7c565b92505b816114405761143d5f610b7c565b91505b82825f610b14600284846080634284f765611087565b5f82611468576114655f610b7c565b92505b81611479576114765f610b7c565b91505b82825f610b14600284846080631f4cda2f611087565b5f60ff8216601f81111561083e576040517fb3512b0c00000000000000000000000000000000000000000000000000000000815260040160405180910390fd5b803573ffffffffffffffffffffffffffffffffffffffff811681146114f2575f80fd5b919050565b5f805f60608486031215611509575f80fd5b833567ffffffffffffffff81111561151f575f80fd5b840160408187031215611530575f80fd5b925061153e602085016114cf565b915061154c604085016114cf565b90509250925092565b5f5b8381101561156f578181015183820152602001611557565b50505f910152565b5f815180845261158e816020860160208601611555565b601f01601f19169290920160200192915050565b602081525f6103106020830184611577565b5f805f606084860312156115c6575f80fd5b6115cf846114cf565b92506115dd602085016114cf565b9150604084013590509250925092565b5f805f805f60a08688031215611601575f80fd5b61160a866114cf565b9450611618602087016114cf565b94979496505050506040830135926060810135926080909101359150565b5f8060408385031215611647575f80fd5b611650836114cf565b915061165e602084016114cf565b90509250929050565b7fff00000000000000000000000000000000000000000000000000000000000000881681525f602060e060208401526116a360e084018a611577565b83810360408501526116b5818a611577565b6060850189905273ffffffffffffffffffffffffffffffffffffffff8816608086015260a0850187905284810360c0860152855180825260208088019350909101905f5b81811015611715578351835292840192918401916001016116f9565b50909c9b505050505050505050505050565b7f4e487b71000000000000000000000000000000000000000000000000000000005f52604160045260245ffd5b604051601f8201601f1916810167ffffffffffffffff8111828210171561177d5761177d611727565b604052919050565b5f67ffffffffffffffff82111561179e5761179e611727565b50601f01601f191660200190565b5f604082360312156117bc575f80fd5b6040516040810167ffffffffffffffff82821081831117156117e0576117e0611727565b81604052843583526020915081850135818111156117fc575f80fd5b8501905036601f82011261180e575f80fd5b803561182161181c82611785565b611754565b8181523684838501011115611834575f80fd5b81848401858301375f918101840191909152918301919091525092915050565b5f60208284031215611864575f80fd5b5051919050565b7f4e487b71000000000000000000000000000000000000000000000000000000005f52602160045260245ffd5b60ff84168152606060208201525f6118b36060830185611577565b8281036040840152610b148185611577565b5f6118d261181c84611785565b90508281528383830111156118e5575f80fd5b610310836020830184611555565b5f60208284031215611903575f80fd5b815167ffffffffffffffff811115611919575f80fd5b8201601f81018413611929575f80fd5b61083a848251602084016118c5565b60ff84168152606060208201525f6119536060830185611577565b905060ff83166040830152949350505050565b600181811c9082168061197a57607f821691505b6020821081036119b1577f4e487b71000000000000000000000000000000000000000000000000000000005f52602260045260245ffd5b50919050565b606081525f6119c96060830186611577565b905060ff841660208301528260030b6040830152949350505050565b60ff85168152608060208201525f611a006080830186611577565b8281036040840152611a128186611577565b90508281036060840152610286818561157756fea164736f6c6343000819000a","linkReferences":{}},"methodIdentifiers":{"createNewVestingSchedule(address,address,uint256,uint256,uint256)":"1738eb16","duration((bytes32,bytes),address,address)":"b504ecc3","eip712Domain()":"84b0196e","end((bytes32,bytes),address,address)":"d1a32784","releasable(address,address)":"c45ac050","release(address,address)":"48b75044","released((bytes32,bytes),address,address)":"15026bad","start((bytes32,bytes),address,address)":"c77b43e6","vestedAmount(address,address,uint256)":"1704f229"},"id":45}